{
  "address": "0x2a810409872AfC346F9B5b26571Fd6eC42EA4849",
  "abi": [
    {
      "inputs": [
        {
          "internalType": "contract IERC20",
          "name": "_lpToken",
          "type": "address"
        },
        {
          "internalType": "contract ERC20Mock",
          "name": "_token1",
          "type": "address"
        },
        {
          "internalType": "contract ERC20Mock",
          "name": "_token2",
          "type": "address"
        },
        {
          "internalType": "contract ERC20Mock",
          "name": "_token3",
          "type": "address"
        },
        {
          "internalType": "uint256",
          "name": "_token1PerBlock",
          "type": "uint256"
        },
        {
          "internalType": "uint256",
          "name": "_token2PerBlock",
          "type": "uint256"
        },
        {
          "internalType": "uint256",
          "name": "_token3PerBlock",
          "type": "uint256"
        },
        {
          "internalType": "uint256",
          "name": "_startBlock",
          "type": "uint256"
        }
      ],
      "stateMutability": "nonpayable",
      "type": "constructor"
    },
    {
      "anonymous": false,
      "inputs": [
        {
          "indexed": true,
          "internalType": "address",
          "name": "user",
          "type": "address"
        },
        {
          "indexed": false,
          "internalType": "uint256",
          "name": "amount",
          "type": "uint256"
        }
      ],
      "name": "Deposit",
      "type": "event"
    },
    {
      "anonymous": false,
      "inputs": [
        {
          "indexed": true,
          "internalType": "address",
          "name": "user",
          "type": "address"
        },
        {
          "indexed": false,
          "internalType": "uint256",
          "name": "amount",
          "type": "uint256"
        }
      ],
      "name": "EmergencyWithdraw",
      "type": "event"
    },
    {
      "anonymous": false,
      "inputs": [
        {
          "indexed": true,
          "internalType": "address",
          "name": "previousOwner",
          "type": "address"
        },
        {
          "indexed": true,
          "internalType": "address",
          "name": "newOwner",
          "type": "address"
        }
      ],
      "name": "OwnershipTransferred",
      "type": "event"
    },
    {
      "anonymous": false,
      "inputs": [
        {
          "indexed": true,
          "internalType": "address",
          "name": "user",
          "type": "address"
        },
        {
          "indexed": false,
          "internalType": "uint256",
          "name": "amount",
          "type": "uint256"
        }
      ],
      "name": "Withdraw",
      "type": "event"
    },
    {
      "inputs": [
        {
          "internalType": "uint256",
          "name": "_amount",
          "type": "uint256"
        }
      ],
      "name": "deposit",
      "outputs": [],
      "stateMutability": "nonpayable",
      "type": "function"
    },
    {
      "inputs": [],
      "name": "emergencyWithdraw",
      "outputs": [],
      "stateMutability": "nonpayable",
      "type": "function"
    },
    {
      "inputs": [
        {
          "internalType": "uint256",
          "name": "_from",
          "type": "uint256"
        },
        {
          "internalType": "uint256",
          "name": "_to",
          "type": "uint256"
        }
      ],
      "name": "getBlocksPassed",
      "outputs": [
        {
          "internalType": "uint256",
          "name": "",
          "type": "uint256"
        }
      ],
      "stateMutability": "view",
      "type": "function"
    },
    {
      "inputs": [],
      "name": "owner",
      "outputs": [
        {
          "internalType": "address",
          "name": "",
          "type": "address"
        }
      ],
      "stateMutability": "view",
      "type": "function"
    },
    {
      "inputs": [
        {
          "internalType": "address",
          "name": "_user",
          "type": "address"
        }
      ],
      "name": "pendingTokens",
      "outputs": [
        {
          "internalType": "uint256",
          "name": "token1Pending",
          "type": "uint256"
        },
        {
          "internalType": "uint256",
          "name": "token2Pending",
          "type": "uint256"
        },
        {
          "internalType": "uint256",
          "name": "token3Pending",
          "type": "uint256"
        }
      ],
      "stateMutability": "view",
      "type": "function"
    },
    {
      "inputs": [],
      "name": "poolInfo",
      "outputs": [
        {
          "internalType": "contract IERC20",
          "name": "lpToken",
          "type": "address"
        },
        {
          "internalType": "uint256",
          "name": "lastRewardBlock",
          "type": "uint256"
        },
        {
          "internalType": "uint256",
          "name": "accToken1PerShare",
          "type": "uint256"
        },
        {
          "internalType": "uint256",
          "name": "accToken2PerShare",
          "type": "uint256"
        },
        {
          "internalType": "uint256",
          "name": "accToken3PerShare",
          "type": "uint256"
        }
      ],
      "stateMutability": "view",
      "type": "function"
    },
    {
      "inputs": [],
      "name": "renounceOwnership",
      "outputs": [],
      "stateMutability": "nonpayable",
      "type": "function"
    },
    {
      "inputs": [
        {
          "internalType": "uint256",
          "name": "_token1PerBlock",
          "type": "uint256"
        },
        {
          "internalType": "uint256",
          "name": "_token2PerBlock",
          "type": "uint256"
        },
        {
          "internalType": "uint256",
          "name": "_token3PerBlock",
          "type": "uint256"
        }
      ],
      "name": "set",
      "outputs": [],
      "stateMutability": "nonpayable",
      "type": "function"
    },
    {
      "inputs": [],
      "name": "startBlock",
      "outputs": [
        {
          "internalType": "uint256",
          "name": "",
          "type": "uint256"
        }
      ],
      "stateMutability": "view",
      "type": "function"
    },
    {
      "inputs": [],
      "name": "token1",
      "outputs": [
        {
          "internalType": "contract ERC20Mock",
          "name": "",
          "type": "address"
        }
      ],
      "stateMutability": "view",
      "type": "function"
    },
    {
      "inputs": [],
      "name": "token1PerBlock",
      "outputs": [
        {
          "internalType": "uint256",
          "name": "",
          "type": "uint256"
        }
      ],
      "stateMutability": "view",
      "type": "function"
    },
    {
      "inputs": [],
      "name": "token2",
      "outputs": [
        {
          "internalType": "contract ERC20Mock",
          "name": "",
          "type": "address"
        }
      ],
      "stateMutability": "view",
      "type": "function"
    },
    {
      "inputs": [],
      "name": "token2PerBlock",
      "outputs": [
        {
          "internalType": "uint256",
          "name": "",
          "type": "uint256"
        }
      ],
      "stateMutability": "view",
      "type": "function"
    },
    {
      "inputs": [],
      "name": "token3",
      "outputs": [
        {
          "internalType": "contract ERC20Mock",
          "name": "",
          "type": "address"
        }
      ],
      "stateMutability": "view",
      "type": "function"
    },
    {
      "inputs": [],
      "name": "token3PerBlock",
      "outputs": [
        {
          "internalType": "uint256",
          "name": "",
          "type": "uint256"
        }
      ],
      "stateMutability": "view",
      "type": "function"
    },
    {
      "inputs": [
        {
          "internalType": "address",
          "name": "newOwner",
          "type": "address"
        }
      ],
      "name": "transferOwnership",
      "outputs": [],
      "stateMutability": "nonpayable",
      "type": "function"
    },
    {
      "inputs": [],
      "name": "updatePool",
      "outputs": [],
      "stateMutability": "nonpayable",
      "type": "function"
    },
    {
      "inputs": [
        {
          "internalType": "address",
          "name": "",
          "type": "address"
        }
      ],
      "name": "userInfo",
      "outputs": [
        {
          "internalType": "uint256",
          "name": "amount",
          "type": "uint256"
        },
        {
          "internalType": "uint256",
          "name": "rewardDebtToken1",
          "type": "uint256"
        },
        {
          "internalType": "uint256",
          "name": "rewardDebtToken2",
          "type": "uint256"
        },
        {
          "internalType": "uint256",
          "name": "rewardDebtToken3",
          "type": "uint256"
        }
      ],
      "stateMutability": "view",
      "type": "function"
    },
    {
      "inputs": [
        {
          "internalType": "uint256",
          "name": "_amount",
          "type": "uint256"
        }
      ],
      "name": "withdraw",
      "outputs": [],
      "stateMutability": "nonpayable",
      "type": "function"
    }
  ],
  "transactionHash": "0x84c82b40dbb570952eda093e2284d8d088f24837900120b5e01134c1afb3a169",
  "args": [
    "0x525C7063E7C20997BaaE9bDa922159152D0e8417",
    "0x38a024C0b412B9d1db8BC398140D00F5Af3093D4",
    "0x5fc748f1FEb28d7b76fa1c6B07D8ba2d5535177c",
    "0xB82008565FdC7e44609fA118A4a681E92581e680",
    "10000000000000000000",
    "20000000000000000000",
    "30000000000000000000",
    "0"
  ],
  "solcInputHash": "15b01d3cbe0e1d99c4287f6b5646f351",
  "bytecode": "0x608060405234801561001057600080fd5b506040516116fc3803806116fc833981810160405261010081101561003457600080fd5b508051602082015160408301516060840151608085015160a086015160c087015160e0909701519596949593949293919290916000610071610186565b600080546001600160a01b0319166001600160a01b0383169081178255604051929350917f8be0079c531659141344cd1fd0a4f28419497f9722a3daafe3b4186f6b6457e0908290a350600680546001600160a01b03808a166001600160a01b031992831617909255600780548984169083161790556008805492881692909116919091179055600a849055600b839055600c829055600d819055600043821061011d57600d5461011f565b435b6040805160a0810182526001600160a01b03909b16808c5260208c018390526000918c0182905260608c018290526080909b01819052600180546001600160a01b031916909b17909a5560025550505060038690555050506004839055505060055561018a565b3390565b611563806101996000396000f3fe608060405234801561001057600080fd5b50600436106101215760003560e01c8063ab01d7fa116100ad578063db2e21bc11610071578063db2e21bc146102e1578063e3161ddd146102e9578063ec99ed07146102f1578063ef14101e146102f9578063f2fde38b1461030157610121565b8063ab01d7fa14610268578063b6b55f2514610270578063c031a66f1461028d578063d1af27ff146102d1578063d21220a7146102d957610121565b806348cd4cb1116100f457806348cd4cb1146101de5780634ebf0c26146101f85780635a2f3d091461021b578063715018a6146102585780638da5cb5b1461026057610121565b80631959a0021461012657806325be124e146101725780632e1a7d4d1461019657806343b0e8df146101b5575b600080fd5b61014c6004803603602081101561013c57600080fd5b50356001600160a01b0316610327565b604080519485526020850193909352838301919091526060830152519081900360800190f35b61017a61034e565b604080516001600160a01b039092168252519081900360200190f35b6101b3600480360360208110156101ac57600080fd5b503561035d565b005b6101b3600480360360608110156101cb57600080fd5b5080359060208101359060400135610578565b6101e66105fa565b60408051918252519081900360200190f35b6101e66004803603604081101561020e57600080fd5b5080359060200135610600565b610223610615565b604080516001600160a01b03909616865260208601949094528484019290925260608401526080830152519081900360a00190f35b6101b3610633565b61017a6106f1565b6101e6610700565b6101b36004803603602081101561028657600080fd5b5035610706565b6102b3600480360360208110156102a357600080fd5b50356001600160a01b03166108c7565b60408051938452602084019290925282820152519081900360600190f35b6101e6610ac8565b61017a610ace565b6101b3610add565b6101b3610b5c565b6101e6610cd9565b61017a610cdf565b6101b36004803603602081101561031757600080fd5b50356001600160a01b0316610cee565b60096020526000908152604090208054600182015460028301546003909301549192909184565b6007546001600160a01b031681565b3360009081526009602052604090208054600191908311156103c6576040805162461bcd60e51b815260206004820152601b60248201527f77697468647261773a206e6f7420656e6f756768742066756e64730000000000604482015290519081900360640190fd5b6103ce610b5c565b6000610408826001015461040264e8d4a510006103fc87600201548760000154610e0290919063ffffffff16565b90610e5b565b90610ec2565b90506000610438836002015461040264e8d4a510006103fc88600301548860000154610e0290919063ffffffff16565b90506000610468846003015461040264e8d4a510006103fc89600401548960000154610e0290919063ffffffff16565b60065490915061048490339085906001600160a01b0316610f1f565b60075461049d90339084906001600160a01b0316610f1f565b6008546104b690339083906001600160a01b0316610f1f565b83546104c29087610ec2565b80855560028601546104df9164e8d4a51000916103fc9190610e02565b6001850155600385015484546104ff9164e8d4a51000916103fc91610e02565b60028501556004850154845461051f9164e8d4a51000916103fc91610e02565b6003850155845461053a906001600160a01b031633886110b7565b60408051878152905133917f884edad9ce6fa2440d8a54cc123490eb96d2768479d49ff9c7366125a9424364919081900360200190a2505050505050565b61058061110e565b6001600160a01b03166105916106f1565b6001600160a01b0316146105ec576040805162461bcd60e51b815260206004820181905260248201527f4f776e61626c653a2063616c6c6572206973206e6f7420746865206f776e6572604482015290519081900360640190fd5b600a92909255600b55600c55565b600d5481565b600061060c8284610ec2565b90505b92915050565b6001546002546003546004546005546001600160a01b039094169385565b61063b61110e565b6001600160a01b031661064c6106f1565b6001600160a01b0316146106a7576040805162461bcd60e51b815260206004820181905260248201527f4f776e61626c653a2063616c6c6572206973206e6f7420746865206f776e6572604482015290519081900360640190fd5b600080546040516001600160a01b03909116907f8be0079c531659141344cd1fd0a4f28419497f9722a3daafe3b4186f6b6457e0908390a3600080546001600160a01b0319169055565b6000546001600160a01b031690565b600a5481565b336000908152600960205260409020600190610720610b5c565b805415610807576000610755826001015461040264e8d4a510006103fc87600201548760000154610e0290919063ffffffff16565b90506000610785836002015461040264e8d4a510006103fc88600301548860000154610e0290919063ffffffff16565b905060006107b5846003015461040264e8d4a510006103fc89600401548960000154610e0290919063ffffffff16565b6006549091506107d190339085906001600160a01b0316610f1f565b6007546107ea90339084906001600160a01b0316610f1f565b60085461080390339083906001600160a01b0316610f1f565b5050505b815461081e906001600160a01b0316333086611112565b805461082a908461116c565b80825560028301546108479164e8d4a51000916103fc9190610e02565b6001820155600382015481546108679164e8d4a51000916103fc91610e02565b6002820155600482015481546108879164e8d4a51000916103fc91610e02565b600382015560408051848152905133917fe1fffcc4923d04b559f4d29a8bfc6cda04eb5b0d3c460751c2402c5c5cc9109c919081900360200190a2505050565b6001600160a01b038082166000908152600960209081526040808320600354600480546005546001805487516370a0823160e01b81523095810195909552965198998a998a999298949593948a949216926370a082319260248082019391829003018186803b15801561093957600080fd5b505afa15801561094d573d6000803e3d6000fd5b505050506040513d602081101561096357600080fd5b505160018701549091504311801561097a57508015155b15610a3e57600061098f876001015443610600565b905060006109a8600a5483610e0290919063ffffffff16565b905060006109c1600b5484610e0290919063ffffffff16565b905060006109da600c5485610e0290919063ffffffff16565b90506109f96109f2866103fc8664e8d4a51000610e02565b899061116c565b9750610a18610a11866103fc8564e8d4a51000610e02565b889061116c565b9650610a37610a30866103fc8464e8d4a51000610e02565b879061116c565b9550505050505b610a66856001015461040264e8d4a510006103fc888a60000154610e0290919063ffffffff16565b9850610a90856002015461040264e8d4a510006103fc878a60000154610e0290919063ffffffff16565b9750610aba856003015461040264e8d4a510006103fc868a60000154610e0290919063ffffffff16565b989a97995050505050505050565b600b5481565b6006546001600160a01b031681565b3360008181526009602052604090208054600180549093610b09926001600160a01b03909216916110b7565b8054604080519182525133917f5fafa99d0643513820be26656b45130b01e1c03062e1266bf36f88cbd3bd9695919081900360200190a26000808255600182018190556002820181905560039091015550565b6002546001904311610b6e5750610cd7565b8054604080516370a0823160e01b815230600482015290516000926001600160a01b0316916370a08231916024808301926020929190829003018186803b158015610bb857600080fd5b505afa158015610bcc573d6000803e3d6000fd5b505050506040513d6020811015610be257600080fd5b5051905080610bf8575043600190910155610cd7565b6000610c08836001015443610600565b90506000610c21600a5483610e0290919063ffffffff16565b90506000610c3a600b5484610e0290919063ffffffff16565b90506000610c53600c5485610e0290919063ffffffff16565b9050610c76610c6b866103fc8664e8d4a51000610e02565b60028801549061116c565b6002870155610c9c610c91866103fc8564e8d4a51000610e02565b60038801549061116c565b6003870155610cc2610cb7866103fc8464e8d4a51000610e02565b60048801549061116c565b60048701555050436001909401939093555050505b565b600c5481565b6008546001600160a01b031681565b610cf661110e565b6001600160a01b0316610d076106f1565b6001600160a01b031614610d62576040805162461bcd60e51b815260206004820181905260248201527f4f776e61626c653a2063616c6c6572206973206e6f7420746865206f776e6572604482015290519081900360640190fd5b6001600160a01b038116610da75760405162461bcd60e51b81526004018080602001828103825260268152602001806114976026913960400191505060405180910390fd5b600080546040516001600160a01b03808516939216917f8be0079c531659141344cd1fd0a4f28419497f9722a3daafe3b4186f6b6457e091a3600080546001600160a01b0319166001600160a01b0392909216919091179055565b600082610e115750600061060f565b82820282848281610e1e57fe5b041461060c5760405162461bcd60e51b81526004018080602001828103825260218152602001806114e36021913960400191505060405180910390fd5b6000808211610eb1576040805162461bcd60e51b815260206004820152601a60248201527f536166654d6174683a206469766973696f6e206279207a65726f000000000000604482015290519081900360640190fd5b818381610eba57fe5b049392505050565b600082821115610f19576040805162461bcd60e51b815260206004820152601e60248201527f536166654d6174683a207375627472616374696f6e206f766572666c6f770000604482015290519081900360640190fd5b50900390565b6000816001600160a01b03166370a08231306040518263ffffffff1660e01b815260040180826001600160a01b0316815260200191505060206040518083038186803b158015610f6e57600080fd5b505afa158015610f82573d6000803e3d6000fd5b505050506040513d6020811015610f9857600080fd5b505190508083111561102d57816001600160a01b031663a9059cbb85836040518363ffffffff1660e01b815260040180836001600160a01b0316815260200182815260200192505050602060405180830381600087803b158015610ffb57600080fd5b505af115801561100f573d6000803e3d6000fd5b505050506040513d602081101561102557600080fd5b506110b19050565b816001600160a01b031663a9059cbb85856040518363ffffffff1660e01b815260040180836001600160a01b0316815260200182815260200192505050602060405180830381600087803b15801561108457600080fd5b505af1158015611098573d6000803e3d6000fd5b505050506040513d60208110156110ae57600080fd5b50505b50505050565b604080516001600160a01b038416602482015260448082018490528251808303909101815260649091019091526020810180516001600160e01b031663a9059cbb60e01b1790526111099084906111c6565b505050565b3390565b604080516001600160a01b0380861660248301528416604482015260648082018490528251808303909101815260849091019091526020810180516001600160e01b03166323b872dd60e01b1790526110b19085906111c6565b60008282018381101561060c576040805162461bcd60e51b815260206004820152601b60248201527f536166654d6174683a206164646974696f6e206f766572666c6f770000000000604482015290519081900360640190fd5b606061121b826040518060400160405280602081526020017f5361666545524332303a206c6f772d6c6576656c2063616c6c206661696c6564815250856001600160a01b03166112779092919063ffffffff16565b8051909150156111095780806020019051602081101561123a57600080fd5b50516111095760405162461bcd60e51b815260040180806020018281038252602a815260200180611504602a913960400191505060405180910390fd5b60606112868484600085611290565b90505b9392505050565b6060824710156112d15760405162461bcd60e51b81526004018080602001828103825260268152602001806114bd6026913960400191505060405180910390fd5b6112da856113ec565b61132b576040805162461bcd60e51b815260206004820152601d60248201527f416464726573733a2063616c6c20746f206e6f6e2d636f6e7472616374000000604482015290519081900360640190fd5b60006060866001600160a01b031685876040518082805190602001908083835b6020831061136a5780518252601f19909201916020918201910161134b565b6001836020036101000a03801982511681845116808217855250505050505090500191505060006040518083038185875af1925050503d80600081146113cc576040519150601f19603f3d011682016040523d82523d6000602084013e6113d1565b606091505b50915091506113e18282866113f2565b979650505050505050565b3b151590565b60608315611401575081611289565b8251156114115782518084602001fd5b8160405162461bcd60e51b81526004018080602001828103825283818151815260200191508051906020019080838360005b8381101561145b578181015183820152602001611443565b50505050905090810190601f1680156114885780820380516001836020036101000a031916815260200191505b509250505060405180910390fdfe4f776e61626c653a206e6577206f776e657220697320746865207a65726f2061646472657373416464726573733a20696e73756666696369656e742062616c616e636520666f722063616c6c536166654d6174683a206d756c7469706c69636174696f6e206f766572666c6f775361666545524332303a204552433230206f7065726174696f6e20646964206e6f742073756363656564a26469706673582212203638681dbb9264990dbd04d44836733f224fd7101d4f2208eaf0d1da355fbec664736f6c634300060c0033",
  "devdoc": {
    "kind": "dev",
    "methods": {
      "owner()": {
        "details": "Returns the address of the current owner."
      },
      "renounceOwnership()": {
        "details": "Leaves the contract without owner. It will not be possible to call `onlyOwner` functions anymore. Can only be called by the current owner. NOTE: Renouncing ownership will leave the contract without an owner, thereby removing any functionality that is only available to the owner."
      },
      "transferOwnership(address)": {
        "details": "Transfers ownership of the contract to a new account (`newOwner`). Can only be called by the current owner."
      }
    },
    "version": 1
  },
  "userdoc": {
    "kind": "user",
    "methods": {},
    "version": 1
  },
  "storageLayout": {
    "storage": [
      {
        "astId": 7,
        "contract": "contracts/SmartFarmPool.sol:SmartFarmPool",
        "label": "_owner",
        "offset": 0,
        "slot": "0",
        "type": "t_address"
      },
      {
        "astId": 2107,
        "contract": "contracts/SmartFarmPool.sol:SmartFarmPool",
        "label": "poolInfo",
        "offset": 0,
        "slot": "1",
        "type": "t_struct(PoolInfo)2105_storage"
      },
      {
        "astId": 2109,
        "contract": "contracts/SmartFarmPool.sol:SmartFarmPool",
        "label": "token1",
        "offset": 0,
        "slot": "6",
        "type": "t_contract(ERC20Mock)3014"
      },
      {
        "astId": 2111,
        "contract": "contracts/SmartFarmPool.sol:SmartFarmPool",
        "label": "token2",
        "offset": 0,
        "slot": "7",
        "type": "t_contract(ERC20Mock)3014"
      },
      {
        "astId": 2113,
        "contract": "contracts/SmartFarmPool.sol:SmartFarmPool",
        "label": "token3",
        "offset": 0,
        "slot": "8",
        "type": "t_contract(ERC20Mock)3014"
      },
      {
        "astId": 2117,
        "contract": "contracts/SmartFarmPool.sol:SmartFarmPool",
        "label": "userInfo",
        "offset": 0,
        "slot": "9",
        "type": "t_mapping(t_address,t_struct(UserInfo)2094_storage)"
      },
      {
        "astId": 2119,
        "contract": "contracts/SmartFarmPool.sol:SmartFarmPool",
        "label": "token1PerBlock",
        "offset": 0,
        "slot": "10",
        "type": "t_uint256"
      },
      {
        "astId": 2121,
        "contract": "contracts/SmartFarmPool.sol:SmartFarmPool",
        "label": "token2PerBlock",
        "offset": 0,
        "slot": "11",
        "type": "t_uint256"
      },
      {
        "astId": 2123,
        "contract": "contracts/SmartFarmPool.sol:SmartFarmPool",
        "label": "token3PerBlock",
        "offset": 0,
        "slot": "12",
        "type": "t_uint256"
      },
      {
        "astId": 2125,
        "contract": "contracts/SmartFarmPool.sol:SmartFarmPool",
        "label": "startBlock",
        "offset": 0,
        "slot": "13",
        "type": "t_uint256"
      }
    ],
    "types": {
      "t_address": {
        "encoding": "inplace",
        "label": "address",
        "numberOfBytes": "20"
      },
      "t_contract(ERC20Mock)3014": {
        "encoding": "inplace",
        "label": "contract ERC20Mock",
        "numberOfBytes": "20"
      },
      "t_contract(IERC20)1045": {
        "encoding": "inplace",
        "label": "contract IERC20",
        "numberOfBytes": "20"
      },
      "t_mapping(t_address,t_struct(UserInfo)2094_storage)": {
        "encoding": "mapping",
        "key": "t_address",
        "label": "mapping(address => struct SmartFarmPool.UserInfo)",
        "numberOfBytes": "32",
        "value": "t_struct(UserInfo)2094_storage"
      },
      "t_struct(PoolInfo)2105_storage": {
        "encoding": "inplace",
        "label": "struct SmartFarmPool.PoolInfo",
        "members": [
          {
            "astId": 2096,
            "contract": "contracts/SmartFarmPool.sol:SmartFarmPool",
            "label": "lpToken",
            "offset": 0,
            "slot": "0",
            "type": "t_contract(IERC20)1045"
          },
          {
            "astId": 2098,
            "contract": "contracts/SmartFarmPool.sol:SmartFarmPool",
            "label": "lastRewardBlock",
            "offset": 0,
            "slot": "1",
            "type": "t_uint256"
          },
          {
            "astId": 2100,
            "contract": "contracts/SmartFarmPool.sol:SmartFarmPool",
            "label": "accToken1PerShare",
            "offset": 0,
            "slot": "2",
            "type": "t_uint256"
          },
          {
            "astId": 2102,
            "contract": "contracts/SmartFarmPool.sol:SmartFarmPool",
            "label": "accToken2PerShare",
            "offset": 0,
            "slot": "3",
            "type": "t_uint256"
          },
          {
            "astId": 2104,
            "contract": "contracts/SmartFarmPool.sol:SmartFarmPool",
            "label": "accToken3PerShare",
            "offset": 0,
            "slot": "4",
            "type": "t_uint256"
          }
        ],
        "numberOfBytes": "160"
      },
      "t_struct(UserInfo)2094_storage": {
        "encoding": "inplace",
        "label": "struct SmartFarmPool.UserInfo",
        "members": [
          {
            "astId": 2087,
            "contract": "contracts/SmartFarmPool.sol:SmartFarmPool",
            "label": "amount",
            "offset": 0,
            "slot": "0",
            "type": "t_uint256"
          },
          {
            "astId": 2089,
            "contract": "contracts/SmartFarmPool.sol:SmartFarmPool",
            "label": "rewardDebtToken1",
            "offset": 0,
            "slot": "1",
            "type": "t_uint256"
          },
          {
            "astId": 2091,
            "contract": "contracts/SmartFarmPool.sol:SmartFarmPool",
            "label": "rewardDebtToken2",
            "offset": 0,
            "slot": "2",
            "type": "t_uint256"
          },
          {
            "astId": 2093,
            "contract": "contracts/SmartFarmPool.sol:SmartFarmPool",
            "label": "rewardDebtToken3",
            "offset": 0,
            "slot": "3",
            "type": "t_uint256"
          }
        ],
        "numberOfBytes": "128"
      },
      "t_uint256": {
        "encoding": "inplace",
        "label": "uint256",
        "numberOfBytes": "32"
      }
    }
  }
}